{
    "in_active_chain": true,
    "txid": "4538ea0203d6ff8027b0578d76493c29ade1dffea96af842d5636ab14e96631a",
    "hash": "66475885595eb3e8fa46bfb30cd10d0c00b29e953304746fd061b8c9d350f171",
    "version": 1,
    "size": 607,
    "vsize": 416,
    "weight": 1663,
    "locktime": 0,
    "vin": [
        {
            "txid": "55d0893e2bc752dec0ea6fe26577d86b58b4872ed6aaaab392a5b3b55c082eb6",
            "vout": 8,
            "scriptSig": {
                "asm": "",
                "hex": ""
            },
            "txinwitness": [
                "",
                "304402200c316bf1635692a6bb1c60f1fe9207565ebe6ea9bb8208dc10a58498a1fb4b4b022051d4bae553adab41735357f8aa413269375d3bc1060e11a70feb92d3918d5c9b01",
                "3045022100cfe140f6c7ca053d817bc216b9506b07eeff4066d368bc0eefeb008dff96759402205b898892dac73c0608894b2398e3748feb845fc971e349293da2ce0849d1bbc001",
                "522103301261898e205be8020752c72b57e938775e0a965e18d00731965272b3b335ae2102dd708cfcd433c8479f36192a58d48a914ac307abccb6930cef49f9353f1aa05f2103fda3dfd2058ae6d3892e717681a21f6987b03fb116c8907921e42c85446666c153ae"
            ],
            "sequence": 4294967293
        }
    ],
    "vout": [
        {
            "value": 0.012,
            "n": 0,
            "scriptPubKey": {
                "asm": "0 e8c919a22e5fc0c47c068b1b607dcf6fa4550198e85a2cd87041d050c6eccd39",
                "desc": "addr(bc1qary3ng3wtlqvglqx3vdkqlw0d7j92qvcapdzekrsg8g9p3hve5us9w2snm)#ydrasjnx",
                "hex": "0020e8c919a22e5fc0c47c068b1b607dcf6fa4550198e85a2cd87041d050c6eccd39",
                "address": "bc1qary3ng3wtlqvglqx3vdkqlw0d7j92qvcapdzekrsg8g9p3hve5us9w2snm",
                "type": "witness_v0_scripthash"
            }
        },
        {
            "value": 0.44503499,
            "n": 1,
            "scriptPubKey": {
                "asm": "0 4c5a6d861e9238102ca2b117e0e2a5bcef925c8a8555315dff14199424e45c06",
                "desc": "addr(bc1qf3dxmps7jgupqt9zkyt7pc49hnheyhy2s42nzh0lzsvegf8ytsrq38xark)#00r0luj5",
                "hex": "00204c5a6d861e9238102ca2b117e0e2a5bcef925c8a8555315dff14199424e45c06",
                "address": "bc1qf3dxmps7jgupqt9zkyt7pc49hnheyhy2s42nzh0lzsvegf8ytsrq38xark",
                "type": "witness_v0_scripthash"
            }
        },
        {
            "value": 0.63798564,
            "n": 2,
            "scriptPubKey": {
                "asm": "0 87372eaff34a8c15b66c72e9520832200e6301e9ae1cd81210b4486bac43feb0",
                "desc": "addr(bc1qsumjatlnf2xptdnvwt54yzpjyq8xxq0f4cwdsyssk3yxhtzrl6cqzhkne9)#vsuqccu3",
                "hex": "002087372eaff34a8c15b66c72e9520832200e6301e9ae1cd81210b4486bac43feb0",
                "address": "bc1qsumjatlnf2xptdnvwt54yzpjyq8xxq0f4cwdsyssk3yxhtzrl6cqzhkne9",
                "type": "witness_v0_scripthash"
            }
        },
        {
            "value": 1.012616,
            "n": 3,
            "scriptPubKey": {
                "asm": "0 d45ff963e271b43c37d2c75ea8874e63abc9510e7daca680df0994b8c047529f",
                "desc": "addr(bc1q630ljclzwx6rcd7jca023p6wvw4uj5gw0kk2dqxlpx2t3sz8220sdfs39g)#rygm792g",
                "hex": "0020d45ff963e271b43c37d2c75ea8874e63abc9510e7daca680df0994b8c047529f",
                "address": "bc1q630ljclzwx6rcd7jca023p6wvw4uj5gw0kk2dqxlpx2t3sz8220sdfs39g",
                "type": "witness_v0_scripthash"
            }
        },
        {
            "value": 1.19299297,
            "n": 4,
            "scriptPubKey": {
                "asm": "0 8c3c2ec056b0985c7b9c283404a2d83509f21294b8c8fa95fd98d1c23def8234",
                "desc": "addr(bc1q3s7zaszkkzv9c7uu9q6qfgkcx5ylyy55hry0490anrguy000sg6qvlsecg)#xhckhn42",
                "hex": "00208c3c2ec056b0985c7b9c283404a2d83509f21294b8c8fa95fd98d1c23def8234",
                "address": "bc1q3s7zaszkkzv9c7uu9q6qfgkcx5ylyy55hry0490anrguy000sg6qvlsecg",
                "type": "witness_v0_scripthash"
            }
        },
        {
            "value": 1.40592454,
            "n": 5,
            "scriptPubKey": {
                "asm": "0 68ddcd47c9f548048761e4d42fd82d584cce35a2d609bc66395e74b3a80e9eef",
                "desc": "addr(bc1qdrwu637f74yqfpmpun2zlkpdtpxvuddz6cymce3ete6t82qwnmhsg4awvf)#pw2zrdcl",
                "hex": "002068ddcd47c9f548048761e4d42fd82d584cce35a2d609bc66395e74b3a80e9eef",
                "address": "bc1qdrwu637f74yqfpmpun2zlkpdtpxvuddz6cymce3ete6t82qwnmhsg4awvf",
                "type": "witness_v0_scripthash"
            }
        },
        {
            "value": 1.7601,
            "n": 6,
            "scriptPubKey": {
                "asm": "0 7bb8f5802ae446be4e5f7dde387ca1624faee09a8643a8c16ff87df4235e2584",
                "desc": "addr(bc1q0wu0tqp2u3rtunjl0h0rsl9pvf86acy6sep63st0lp7lgg67ykzqeq89pn)#se4e68s3",
                "hex": "00207bb8f5802ae446be4e5f7dde387ca1624faee09a8643a8c16ff87df4235e2584",
                "address": "bc1q0wu0tqp2u3rtunjl0h0rsl9pvf86acy6sep63st0lp7lgg67ykzqeq89pn",
                "type": "witness_v0_scripthash"
            }
        }
    ],
    "hex": "01000000000101b62e085cb5b3a592b3aaaad62e87b4586bd87765e26feac0de52c72b3e89d0550800000000fdffffff07804f120000000000220020e8c919a22e5fc0c47c068b1b607dcf6fa4550198e85a2cd87041d050c6eccd39cb11a702000000002200204c5a6d861e9238102ca2b117e0e2a5bcef925c8a8555315dff14199424e45c06247dcd030000000022002087372eaff34a8c15b66c72e9520832200e6301e9ae1cd81210b4486bac43feb02021090600000000220020d45ff963e271b43c37d2c75ea8874e63abc9510e7daca680df0994b8c047529fe15c1c07000000002200208c3c2ec056b0985c7b9c283404a2d83509f21294b8c8fa95fd98d1c23def8234464561080000000022002068ddcd47c9f548048761e4d42fd82d584cce35a2d609bc66395e74b3a80e9eef10b37d0a000000002200207bb8f5802ae446be4e5f7dde387ca1624faee09a8643a8c16ff87df4235e2584040047304402200c316bf1635692a6bb1c60f1fe9207565ebe6ea9bb8208dc10a58498a1fb4b4b022051d4bae553adab41735357f8aa413269375d3bc1060e11a70feb92d3918d5c9b01483045022100cfe140f6c7ca053d817bc216b9506b07eeff4066d368bc0eefeb008dff96759402205b898892dac73c0608894b2398e3748feb845fc971e349293da2ce0849d1bbc00169522103301261898e205be8020752c72b57e938775e0a965e18d00731965272b3b335ae2102dd708cfcd433c8479f36192a58d48a914ac307abccb6930cef49f9353f1aa05f2103fda3dfd2058ae6d3892e717681a21f6987b03fb116c8907921e42c85446666c153ae00000000",
    "blockhash": "00000000000000000001b38e7b73f553f1558ae4c5e89ef83bd39ad47dd77abc",
    "confirmations": 203,
    "time": 1744840684,
    "blocktime": 1744840684
}